:020000040000FA
:0400000063EF3EF07C
:107C9F00010E10101F1B1B1F000E11111F1B1B1F8E
:107CAF0000126E12C083FF848084821A0EE82EFEAB
:107CBF00D700D0849212009F0EF66E7C0EF76E00E6
:107CCF000EF86E00EE01F010EE11F00900F5CFEE98
:107CDF00FFE550E150FAE11B6A000124EF3FF0137A
:107CEF006E849013C083FF8482030E126E980EE889
:107CFF002EFED7122EFCD78492030E126E980EE82A
:107D0F002EFED7122EFCD78DEF3EF01200340E143C
:107D1F006EF20EE82EFED7142EFCD7300E77EC3E07
:107D2F00F00D0E146EFC0EE82EFED7142EFCD7307D
:107D3F000E77EC3EF0030E146E980EE82EFED7145D
:107D4F002EFCD7300E77EC3EF0380E77EC3EF00F6E
:107D5F000E77EC3EF0010E77EC3EF0060E77EC3E20
:107D6F00F0BAEF3EF01200166E1404D8A4C2EF3E24
:107D7F00F0C4EF3EF0CDEF3EF0800E146E145015B0
:107D8F0024176E186A1836E1EF3EF0020E1418D859
:107D9F00A4D4EF3EF0D6EF3EF0E1EF3EF0C00E146C
:107DAF006E14501524176E186A1836E1EF3EF0E185
:107DBF00EF3EF0175077EC3EF016C083FF848084BF
:107DCF00821A0EE82EFED700D084921200166E088B
:107DDF000E1660F5EF3EF0F7EF3EF023EF3FF01693
:107DEF0050080DF350400F77EC3EF0000E176E0762
:107DFF000E176405EF3FF007EF3FF00BEF3FF02357
:107E0F00EF3FF023EF3FF01750010DF3501424D93B
:107E1F006EF4501520DA6EDF5058EC3EF0172A073B
:107E2F000E17641DEF3FF01FEF3FF00BEF3FF023F6
:107E3F00EF3FF023EF3FF01200720ED36EC180C1FF
:107E4F0082C184C186010E926E000E956E000E9651
:107E5F006E020E1A6E040E196EBA0EE82EFED719A8
:107E6F002EFCD71A2EFAD700D08EEC3EF00C0E77E0
:107E7F00EC3EF00A0E146E000E156E000EEEEC3E88
:107E8F00F0020E146E000E156E010EEEEC3EF002B7
:107E9F000E1A6E040E196EBA0EE82EFED7192EFCAE
:107EAF00D71A2EFAD700D001C014F01BC015F0015D
:107EBF000EBBEC3EF064EF3FF080A069EF3FF06B3C
:107ECF00EF3FF083EF3FF0020E0118D8A472EF3F9F
:107EDF00F074EF3FF064EF3FF00106010E77EC3ED8
:107EEF00F001C014F01BC015F0010EBBEC3EF064A6
:107EFF00EF3FF064EF3FF080A288EF3FF08AEF3F53
:107F0F00F0A1EF3FF00104D8A490EF3FF092EF3FC4
:107F1F00F064EF3FF0012A010E77EC3EF001C01440
:107F2F00F01BC015F0010EBBEC3EF064EF3FF064A8
:107F3F00EF3FF080A4A6EF3FF0A8EF3FF0CAEF3F6E
:107F4F00F00F0E1B60AEEF3FF0B0EF3FF064EF3F6E
:107F5F00F01B2A010E77EC3EF001C014F01BC01588
:107F6F00F0010EBBEC3EF0030E1A6E8A0E196E5620
:107F7F000EE82EFED7192EFCD71A2EFAD764EF3F34
:107F8F00F064EF3FF080A6CFEF3FF0D1EF3FF0640A
:107F9F00EF3FF01B50D8B4D7EF3FF0D9EF3FF0646D
:107FAF00EF3FF01B06010E77EC3EF001C014F01B03
:107FBF00C015F0010EBBEC3EF0030E1A6E080E1941
:107FCF006E770EE82EFED7192EFCD71A2EFAD70091
:107FDF00F064EF3FF064EF3FF064EF3FF064EF3F8A
:107FEF00F064EF3FF064EF3FF064EF3FF000EF001D
:017FFF00F091
:020000040020DA
:08000000FFFFFFFFFFFFFFFF00
:020000040030CA
:0E00000000091F1EFF8185FF0FC00FE00F409B
:00000001FF
