:020000040000FA
:04000000F0EF08F025
:100800000047414D45204F564552004C6576656C7A
:050810002055700000FE
:10081600720ED36EC180C182C184C186010E926EF2
:10082600000E956E000E966E6AEC08F04D0E036E85
:10083600000E046E000ECBEC07F0450E036E000EA4
:10084600046E010ECBEC07F0A80E036E000E046ECC
:10085600020ECBEC07F0A00E036E000E046E030E24
:10086600CBEC07F0900E036E000E046E040ECBEC7C
:1008760007F0980E036E000E046E050ECBEC07F023
:10088600880E036E000E046E060ECBEC07F0800E8B
:10089600036E000E046E070ECBEC07F0020E2B6EF5
:1008A600040E2A6EBA0EE82EFED72A2EFCD72B2E61
:1008B600FAD700D05FEF04F087EC05F036EC08F0CD
:1008C60043C003F044C004F0575097EC08F0030E01
:1008D6002B6E080E2A6E770EE82EFED72A2EFCD730
:1008E6002B2EFAD700F0562A000E306E000E2F6E11
:1008F60030BE87EF04F0305009E1080E2F5CD8A017
:1009060087EF04F089EF04F08DEF04F0C3EF04F0F5
:10091600C3EF04F0390E2F24D96E000E3020DA6EA4
:100926004450DE18D8A49AEF04F09CEF04F0B1EF1F
:1009360004F0310E2F24D96E000E3020DA6E4350AB
:10094600DE18D8A4A9EF04F0ABEF04F0B1EF04F081
:1009560006EC05F004EF05F004EF05F02F4A302A07
:1009660030BEBFEF04F0305009E1080E2F5CD8A06E
:10097600BFEF04F0C1EF04F08DEF04F0C3EF04F015
:1009860042502A6E2B6A44502C6E2D6A0E0E2C266F
:10099600000E2D222A502C5C2D50800A2E6E2B50D4
:1009A600800A2E58D8B0DAEF04F0DCEF04F0E2EF5C
:1009B60004F092EC07F004EF05F004EF05F041C0F7
:1009C60001F0565043EC09F00009D8A4EDEF04F00D
:1009D600EFEF04F0F3EF04F001EC08F0F3EF04F0AE
:1009E600270E4418D8A4FAEF04F0FCEF04F05FEFEA
:1009F60004F0E4EC06F05FEF04F05FEF04F05FEF65
:100A060004F000EF00F0010EA0EC09F0020E096EF2
:100A1600040E086EBA0EE82EFED7082EFCD7092E55
:100A2600FAD700D0010E036E040EC4EC08F0010ED6
:100A3600026E080E036E66EC09F0060E096E130EC2
:100A4600086EAE0EE82EFED7082EFCD7092EFAD772
:100A5600020E036E060E046E000E97EC08F0060EEC
:100A6600096E130E086EAE0EE82EFED7082EFCD7C2
:100A7600092EFAD7020E036E070E046E010E97ECCE
:100A860008F0060E096E130E086EAE0EE82EFED79F
:100A9600082EFCD7092EFAD7020E036E080E046E36
:100AA600020E97EC08F0060E096E130E086EAE0ED7
:100AB600E82EFED7082EFCD7092EFAD7020E036EB3
:100AC600090E046E030E97EC08F0060E096E130E5F
:100AD600086EAE0EE82EFED7082EFCD7092EFAD7E2
:100AE600020E036E0A0E046E040E97EC08F0150E45
:100AF600096E4B0E086EBE0EE82EFED7082EFCD7EA
:100B0600092EFAD700D0120080A08CEF05F08EEFE8
:100B160005F0A2EF05F0020E4318D8A495EF05F0F4
:100B260097EF05F0A2EF05F0020E036E4450C4ECF9
:100B360008F0200EC9EC09F04306A2EF05F080A2EA
:100B4600A7EF05F0A9EF05F0BCEF05F04304D8A424
:100B5600AFEF05F0B1EF05F0BCEF05F0010E036E47
:100B66004450C4EC08F0200EC9EC09F0432ABCEF4F
:100B760005F080A4C1EF05F0C3EF05F0EBEF05F03B
:100B8600FF0E076EFF0E086E4250096E0A6A075086
:100B9600092608500A2244500B6E0C6A09500B5C59
:100BA6000C50800A0D6E0A50800A0D58D8B0DEEF40
:100BB60005F0E0EF05F0EBEF05F043C003F044501D
:100BC600C4EC08F0200EC9EC09F0442AEBEF05F05E
:100BD60080A6F0EF05F0F2EF05F005EF06F0010E46
:100BE6004464F8EF05F0FAEF05F005EF06F043C0B0
:100BF60003F04450C4EC08F0200EC9EC09F044069A
:100C060005EF06F0120058C001F059C002F05AC0B4
:100C160003F05BC004F05CC005F05DC006F05EC08A
:100C260007F05FC008F02D0E096E7F0E0A6E950E56
:100C36000B6E4C0E0C6E2D0E0D6EF40E0E6E510ECE
:100C46000F6E580E106E3FEC07F001C01BF002C08D
:100C56001CF003C01DF004C01EF005C01FF006C046
:100C660020F007C021F008C022F0010E1B24586EA8
:100C7600000E1C20596E000E1D205A6E000E1E20FE
:100C86005B6E000E1F205C6E000E20205D6E000E57
:100C960021205E6E000E22205F6E58C01BF059C0E8
:100CA6001CF05AC01DF05BC01EF05CC01FF05DC09A
:100CB60020F05EC021F05FC022F0080E6CEF06F057
:100CC600D8902232213220321F321E321D321C327F
:100CD6001B32E82E63EF06F01BC019F01DC01AF098
:100CE60075EF06F01200076E070EA0EC09F007502C
:100CF600D8A480EF06F082EF06F0B1EF06F0000E02
:100D0600096E000E086E9BEF06F0180EA0EC09F0B7
:100D1600030E056E080E046E770EE82EFED7042E1F
:100D2600FCD7052EFAD700F0084A092A9BEF06F0F1
:100D36000350046E056A0450085C0950800A066E6A
:100D46000550800A0658D8A0ABEF06F0ADEF06F0C6
:100D560088EF06F0E0EF06F0E0EF06F0000E0B6E0F
:100D6600000E0A6ECAEF06F01C0EA0EC09F0030E88
:100D7600056E080E046E770EE82EFED7042EFCD7FD
:100D8600052EFAD700F00A4A0B2ACAEF06F00350DE
:100D9600046E056A04500A5C0B50800A066E055004
:100DA600800A0658D8A0DAEF06F0DCEF06F0B7EFB7
:100DB60006F0E0EF06F0E0EF06F0060EA0EC09F014
:100DC6001200010EA0EC09F0020E096E040E086E68
:100DD600BA0EE82EFED7082EFCD7092EFAD700D079
:100DE600010E036E040EC4EC08F00B0E026E080E24
:100DF600036E66EC09F0020E036E080E046E070E13
:100E060097EC08F01A0E096E5E0E086E6E0EE82E4E
:100E1600FED7082EFCD7092EFAD700D0425000087C
:100E260044240E0F446E000E556E20EE70F010EE48
:100E36000AF00F0EDBCFE3FFE806FCE220EE60F0DF
:100E460010EE1AF00F0EDBCFE3FFE806FCE2000E11
:100E5600566E0E0E426E41064104D8A435EF07F0D9
:100E660037EF07F03BEF07F0020E416E3BEF07F05E
:100E7600010EA0EC09F0120020EE11F0070EDE6A5A
:100E8600E806FDE247EF07F001A04CEF07F04EEF52
:100E960007F060EF07F0095011260A5012220B5096
:100EA60013220C5014220D5015220E5016220F50EC
:100EB60017221050182260EF07F0D89009360A362C
:100EC6000B360C360D360E360F361036D8900832E5
:100ED6000732063205320432033202320132015041
:100EE6000210031004100510061007100810D8A4ED
:100EF6007FEF07F081EF07F047EF07F011C001F031
:100F060012C002F013C003F014C004F015C005F0BF
:100F160016C006F017C007F018C008F01200010E40
:100F2600A0EC09F0020E096E040E086EBA0EE82E49
:100F3600FED7082EFCD7092EFAD700D0010E036E75
:100F4600040EC4EC08F0010E026E080E036E66EC89
:100F560009F0060E096E130E086EAE0EE82EFED7C9
:100F6600082EFCD7092EFAD7020E036E080E046E61
:100F7600060E97EC08F01F0E096E710E086E1E0E17
:100F8600E82EFED7082EFCD7092EFAD700D012007D
:100F9600056E080E0560D2EF07F0D4EF07F000EFFC
:100FA60008F00550080DF350400FA0EC09F0000EB4
:100FB600066E070E0664E2EF07F0E4EF07F0E8EFCF
:100FC60007F000EF08F000EF08F00650010DF350AF
:100FD6000324D96EF4500420DA6EDF50C9EC09F010
:100FE600062A070E0664FAEF07F0FCEF07F0E8EFB3
:100FF60007F000EF08F000EF08F01200010E036E94
:10100600000E76EC06F0422A42B00CEF08F00EEF26
:1010160008F035EF08F0080E5518D8A415EF08F0BB
:1010260017EF08F01BEF08F0000E556E1BEF08F0E7
:10103600425085EC09F05550010D310EF324D96E5E
:10104600000EF420DA6E23C0DFFF5550010D390E75
:10105600F324D96E000EF420DA6E42C0DFFF552A63
:1010660035EF08F012004CEF08F0010E576E69EFED
:1010760008F0020E576E69EF08F0030E576E69EF1F
:1010860008F0000E576E69EF08F069EF08F069EF97
:1010960008F05750016E026A0250000AD8B456EFA3
:1010A60008F069EF08F00150000AD8B438EF08F0EC
:1010B600010AD8B43CEF08F0030AD8B440EF08F0B0
:1010C600010AD8B444EF08F069EF08F01200340EB4
:1010D600036EF20EE82EFED7032EFCD7300EA0ECE0
:1010E60009F00D0E036EFC0EE82EFED7032EFCD77C
:1010F600300EA0EC09F0030E036E980EE82EFED714
:10110600032EFCD7300EA0EC09F0380EA0EC09F047
:101116000C0EA0EC09F0010EA0EC09F0060EA0ECF6
:1011260009F096EF08F01200056E0304D8A49EEFAE
:1011360008F0A0EF08F0A9EF08F0800E036E035048
:101146000424066E076A0736BDEF08F0020E031880
:10115600D8A4B0EF08F0B2EF08F0BDEF08F0C00E6B
:10116600036E03500424066E076A0736BDEF08F0C7
:10117600BDEF08F00650A0EC09F00550C9EC09F0E7
:101186001200066E0304D8A4CBEF08F0CDEF08F0EA
:10119600D6EF08F0800E036E03500624046E056A2F
:1011A6000536EAEF08F0020E0318D8A4DDEF08F0C2
:1011B600DFEF08F0EAEF08F0C00E036E03500624D6
:1011C600046E056A0536EAEF08F0EAEF08F0045007
:1011D600A0EC09F0EFEF08F01200360EF66E120ED4
:1011E600F76E000EF86E00EE60F010EE50F009009B
:1011F600F5CFEEFFE550E150FAE16E0EF66E130EF6
:10120600F76E000EF86E00EE31F010EE24F00900D5
:10121600F5CFEEFFE550E150FAE100EE55F00B0E8A
:10122600EE6AE806FDE1000EF86E00010BEF04F031
:10123600FFFFFFFFFFFFFFFFFFFFFFFFFFFFFFFFB8
:10124600FFFFFFFFFFFFFFFFFFFFFFFFFFFFFFFFA8
:1012560000000A00110E00000E01111D1B1A0F00DE
:101266000E10101F1B1B1F00060406040E0A0E009C
:101276000E0A0A0E06060E000E11111F1F1F1F0072
:10128600026E080E036E000E046E4AEF09F0D89047
:1012960002340434046ED89002360150045CD8A09F
:1012A60057EF09F059EF09F05DEF09F00150045EC0
:1012B6005DEF09F0032E4AEF09F062EF09F00450E2
:1012C60065EF09F0120074EF09F002C0F6FF03C0E3
:1012D600F7FF0800F550C9EC09F0024A032A74EF3B
:1012E60009F002C0F6FF03C0F7FF0800F550000939
:1012F600D8A480EF09F082EF09F068EF09F084EFD7
:1013060009F01200256E06EC06F0010E1916000E05
:101316001A16010E1924266E000E1A20276E26C0F4
:1013260003F025C004F0050E97EC08F026C023F064
:1013360027C024F09FEF09F01200026E849002C0CD
:1013460083FF8482030E016E980EE82EFED7012ECF
:10135600FCD78492030E016E980EE82EFED7012E5E
:10136600FCD7B6EF09F01200FFFFFFFFFFFFFFFFFC
:10137600FFFFFFFFFFFFFFFF040F01010E0A0A0E2A
:101386000C0C0E000E11111F1B1B1F00016E01C05D
:1013960083FF848084821A0EE82EFED700D08492C2
:0213A600120033
:020000040020DA
:08000000FFFFFFFFFFFFFFFF00
:020000040030CA
:0E00000000091F1EFF8185FF0FC00FE00F409B
:00000001FF
