:020000040000FA
:0400000063EF3EF07C
:107C58002A6E2AC083FF848084821A0EE82EFED7FB
:067C680000D0849212001E
:107C6F00010E10101F1B1B1F000E0A0A0E06060E18
:107C7F00000E11111F1F1F1F000E0A0A0E0C0C0EF3
:107C8F00000E11111F1B1B1F002B6E84902BC08326
:107C9F00FF8482030E2A6E980EE82EFED72A2EFC42
:107CAF00D78492030E2A6E980EE82EFED72A2EFC4A
:107CBF00D762EF3EF012006F0EF66E7C0EF76E007D
:107CCF000EF86E00EE01F010EE29F00900F5CFEE80
:107CDF00FFE550E150FAE1366A356A000EF86E00A2
:107CEF000112EF3FF0340E2C6EF20EE82EFED72C61
:107CFF002EFCD7300E4CEC3EF00D0E2C6EFC0EE829
:107D0F002EFED72C2EFCD7300E4CEC3EF0030E2C53
:107D1F006E980EE82EFED72C2EFCD7300E4CEC3E74
:107D2F00F0380E4CEC3EF00C0E4CEC3EF0010E4CCD
:107D3F00EC3EF0070E4CEC3EF0A6EF3EF01200309A
:107D4F006E2C042D10D8A4AFEF3EF0B1EF3EF0BD76
:107D5F00EF3EF0000E2D6E800E2C6E2E502C243127
:107D6F006E2F502D20326ED5EF3EF0020E2C182DB7
:107D7F0010D8A4C5EF3EF0C7EF3EF0D5EF3EF000B0
:107D8F000E2D6EC00E2C6E2E502C24316E2F502DBA
:107D9F0020326ED5EF3EF0D5EF3EF031504CEC3E39
:107DAF00F030502CEC3EF012002E6E080E2E60E3D9
:107DBF00EF3EF0E5EF3EF011EF3FF02E50080DF3E0
:107DCF0050400F4CEC3EF0000E2F6E070E2F64F359
:107DDF00EF3EF0F5EF3EF0F9EF3EF011EF3FF0110F
:107DEF00EF3FF02F50010DF3502C24D96EF4502D8E
:107DFF0020DA6EDF502CEC3EF02F2A070E2F640B8B
:107E0F00EF3FF00DEF3FF0F9EF3EF011EF3FF011C4
:107E1F00EF3FF01200720ED36EC180C182C184C1D8
:107E2F0086010E926E000E956E000E966E7AEC3EE7
:107E3F00F0220E2C6E000E2D6E000EDCEC3EF01AB2
:107E4F000E2C6E000E2D6E010EDCEC3EF0120E2C81
:107E5F006E000E2D6E020EDCEC3EF00A0E2C6E0044
:107E6F000E2D6E030EDCEC3EF0020E2C6E000E2D6E
:107E7F006E040EDCEC3EF0020E346E040E336EBA5E
:107E8F000EE82EFED7332EFCD7342EFAD700D001B2
:107E9F00C02CF02D6A36C02EF02F6A000EA7EC3ED4
:107EAF00F0020E346E040E336EBA0EE82EFED73388
:107EBF002EFCD7342EFAD700D066EF3FF080A06BA0
:107ECF00EF3FF06DEF3FF079EF3FF0020E0118D862
:107EDF00A474EF3FF076EF3FF079EF3FF0010679B2
:107EEF00EF3FF080A27EEF3FF080EF3FF08BEF3F50
:107EFF00F00104D8A486EF3FF088EF3FF08BEF3FFF
:107F0F00F0012A8BEF3FF080A490EF3FF092EF3F0C
:107F1F00F09DEF3FF00F0E366098EF3FF09AEF3F76
:107F2F00F09DEF3FF0362A9DEF3FF080A6A2EF3F86
:107F3F00F0A4EF3FF0C5EF3FF03650D8B4AAEF3FB3
:107F4F00F0ACEF3FF0C5EF3FF03606C5EF3FF0C5A1
:107F5F00EF3FF0010E356EE2EF3FF0020E356EE2AD
:107F6F00EF3FF0030E356EE2EF3FF0000E356EE29D
:107F7F00EF3FF0E2EF3FF0E2EF3FF03550336E347A
:107F8F006A3450000AD8B4CFEF3FF0E2EF3FF0333E
:107F9F0050000AD8B4B1EF3FF0010AD8B4B5EF3FA3
:107FAF00F0030AD8B4B9EF3FF0010AD8B4BDEF3FE0
:107FBF00F0E2EF3FF0010E4CEC3EF001C02CF02D43
:107FCF006A36C02EF02F6A3550A7EC3EF0030E3400
:107FDF006E080E336E770EE82EFED7332EFCD73495
:107FEF002EFAD700F066EF3FF066EF3FF000EF009C
:017FFF00F091
:020000040020DA
:08000000FFFFFFFFFFFFFFFF00
:020000040030CA
:0E00000000091F1EFF8185FF0FC00FE00F409B
:00000001FF
