:020000040000FA
:0400000088EF3EF057
:107CBB00010E10101F1B1B1F000E11111F1B1B1F72
:107CCB0000126E12C083FF848084821A0EE82EFE8F
:107CDB00D700D084921200136E849013C083FF845C
:107CEB0082030E126E980EE82EFED7122EFCD7844E
:107CFB0092030E126E980EE82EFED7122EFCD7872B
:107D0B00EF3EF01200BB0EF66E7C0EF76E000EF817
:107D1B006E00EE01F010EE11F00900F5CFEEFFE56D
:107D2B0050E150FAE11E6A1D6A000EF86E00013731
:107D3B00EF3FF0340E146EF20EE82EFED7142EFC2D
:107D4B00D7300E71EC3EF00D0E146EFC0EE82EFECD
:107D5B00D7142EFCD7300E71EC3EF0030E146E9838
:107D6B000EE82EFED7142EFCD7300E71EC3EF038F9
:107D7B000E71EC3EF00C0E71EC3EF0010E71EC3E10
:107D8B00F0060E71EC3EF0CBEF3EF01200186E14C5
:107D9B00041510D8A4D4EF3EF0D6EF3EF0E2EF3E40
:107DAB00F0000E156E800E146E16501424196E17FB
:107DBB005015201A6EFAEF3EF0020E14181510D85B
:107DCB00A4EAEF3EF0ECEF3EF0FAEF3EF0000E15BA
:107DDB006EC00E146E16501424196E175015201AFF
:107DEB006EFAEF3EF0FAEF3EF0195071EC3EF018E0
:107DFB005066EC3EF01200166E080E166008EF3F50
:107E0B00F00AEF3FF036EF3FF01650080DF35040FD
:107E1B000F71EC3EF0000E176E070E176418EF3F54
:107E2B00F01AEF3FF01EEF3FF036EF3FF036EF3F2B
:107E3B00F01750010DF3501424D96EF4501520DABD
:107E4B006EDF5066EC3EF0172A070E176430EF3FDB
:107E5B00F032EF3FF01EEF3FF036EF3FF036EF3FE3
:107E6B00F01200720ED36EC180C182C184C1860133
:107E7B000E926E000E956E000E966E9FEC3EF00A03
:107E8B000E146E000E156E000E01EC3FF0020E1478
:107E9B006E000E156E010E01EC3FF0020E1C6E040F
:107EAB000E1B6EBA0EE82EFED71B2EFCD71C2EFA1D
:107EBB00D700D001C014F0156A1EC016F0176A0166
:107ECB000ECCEC3EF0020E1C6E040E1B6EBA0EE8CE
:107EDB002EFED71B2EFCD71C2EFAD700D076EF3FE9
:107EEB00F080A07BEF3FF07DEF3FF089EF3FF0029A
:107EFB000E0118D8A484EF3FF086EF3FF089EF3FD7
:107F0B00F0010689EF3FF080A28EEF3FF090EF3F3C
:107F1B00F09BEF3FF00104D8A496EF3FF098EF3FB2
:107F2B00F09BEF3FF0012A9BEF3FF080A4A0EF3FC7
:107F3B00F0A2EF3FF0ADEF3FF00F0E1E60A8EF3F4A
:107F4B00F0AAEF3FF0ADEF3FF01E2AADEF3FF08010
:107F5B00A6B2EF3FF0B4EF3FF0CDEF3FF01E50D89D
:107F6B00B4BAEF3FF0BCEF3FF0CDEF3FF01E06CDC4
:107F7B00EF3FF0CDEF3FF0010E1D6EE2EF3FF00053
:107F8B000E1D6EE2EF3FF0E2EF3FF0E2EF3FF01D30
:107F9B00501B6E1C6A1C50000AD8B4D7EF3FF0E29E
:107FAB00EF3FF01B50000AD8B4C1EF3FF0010AD8E5
:107FBB00B4C5EF3FF0E2EF3FF0010E71EC3EF00184
:107FCB00C014F0156A1EC016F0176A1D50CCEC3E9B
:107FDB00F0030E1C6E080E1B6E770EE82EFED71BE1
:107FEB002EFCD71C2EFAD700F076EF3FF076EF3F42
:057FFB00F000EF00F0B2
:020000040020DA
:08000000FFFFFFFFFFFFFFFF00
:020000040030CA
:0E00000000091F1EFF8185FF0FC00FE00F409B
:00000001FF
