:020000040000FA
:040000005DEF3EF082
:107C9300010E10101F1B1B1F000E11111F1B1B1F9A
:107CA30000126E12C083FF848084821A0EE82EFEB7
:107CB300D700D084921200930EF66E7C0EF76E00FE
:107CC3000EF86E00EE01F010EE11F00900F5CFEEA4
:107CD300FFE550E150FAE11B6A00011EEF3FF0138C
:107CE3006E849013C083FF8482030E126E980EE895
:107CF3002EFED7122EFCD78492030E126E980EE836
:107D03002EFED7122EFCD787EF3EF01200340E144E
:107D13006EF20EE82EFED7142EFCD7300E71EC3E19
:107D2300F00D0E146EFC0EE82EFED7142EFCD73089
:107D33000E71EC3EF0030E146E980EE82EFED7146F
:107D43002EFCD7300E71EC3EF0380E71EC3EF00F86
:107D53000E71EC3EF0010E71EC3EF0060E71EC3E3E
:107D6300F0B4EF3EF01200166E1404D8A4BCEF3E3C
:107D7300F0BEEF3EF0C7EF3EF0800E146E145015C8
:107D830024176E186A1836DBEF3EF0020E1418D86B
:107D9300A4CEEF3EF0D0EF3EF0DBEF3EF0C00E148A
:107DA3006E14501524176E186A1836DBEF3EF0DB9D
:107DB300EF3EF0175071EC3EF016C083FF848084D1
:107DC300821A0EE82EFED700D084921200166E0897
:107DD3000E1660EFEF3EF0F1EF3EF01DEF3FF016B1
:107DE30050080DF350400F71EC3EF0000E176E0774
:107DF3000E1764FFEF3EF001EF3FF005EF3FF01D7C
:107E0300EF3FF01DEF3FF01750010DF3501424D94D
:107E13006EF4501520DA6EDF5052EC3EF0172A074D
:107E23000E176417EF3FF019EF3FF005EF3FF01D1A
:107E3300EF3FF01DEF3FF01200720ED36ED09EF2B3
:107E43009EC180C182C184C186010E926E000E93D1
:107E53006E000E946E000E956E000E966E020E1A54
:107E63006E040E196EBA0EE82EFED7192EFCD71A21
:107E73002EFAD700D088EC3EF00C0E71EC3EF00ADF
:107E83000E146E000E156E000EE8EC3EF0020E149A
:107E93006E000E156E010EE8EC3EF0020E1A6E0433
:107EA3000E196EBA0EE82EFED7192EFCD71A2EFA2B
:107EB300D700D001C014F01BC015F0010EB5EC3E85
:107EC300F064EF3FF080A069EF3FF06BEF3FF0838A
:107ED300EF3FF0020E0118D8A472EF3FF074EF3FAA
:107EE300F064EF3FF00106010E71EC3EF001C014A7
:107EF300F01BC015F0010EB5EC3EF064EF3FF064EB
:107F0300EF3FF080A288EF3FF08AEF3FF0A1EF3F11
:107F1300F00104D8A490EF3FF092EF3FF064EF3FFD
:107F2300F0012A010E71EC3EF001C014F01BC015E4
:107F3300F0010EB5EC3EF064EF3FF064EF3FF080EC
:107F4300A4A6EF3FF0A8EF3FF0CAEF3FF00F0E1BE0
:107F530060AEEF3FF0B0EF3FF064EF3FF01B2A015C
:107F63000E71EC3EF001C014F01BC015F0010EB50C
:107F7300EC3EF0030E1A6E8A0E196E560EE82EFEB4
:107F8300D7192EFCD71A2EFAD764EF3FF064EF3FD0
:107F9300F080A6CFEF3FF0D1EF3FF064EF3FF01B4F
:107FA30050D8B4D7EF3FF0D9EF3FF064EF3FF01B69
:107FB30006010E71EC3EF001C014F01BC015F00178
:107FC3000EB5EC3EF0030E1A6E080E196E770EE82E
:107FD3002EFED7192EFCD71A2EFAD700F064EF3FE6
:107FE300F064EF3FF064EF3FF064EF3FF064EF3F86
:0D7FF300F064EF3FF064EF3FF000EF00F0AE
:020000040020DA
:08000000FFFFFFFFFFFFFFFF00
:020000040030CA
:0E00000000091F1EFF8185FF0FC00FE00F409B
:00000001FF
